{
  "_format": "hh-sol-artifact-1",
  "contractName": "Assessment",
  "sourceName": "contracts/Assessment.sol",
  "abi": [
    {
      "inputs": [
        {
          "internalType": "uint256",
          "name": "initBalance",
          "type": "uint256"
        }
      ],
      "stateMutability": "payable",
      "type": "constructor"
    },
    {
      "inputs": [
        {
          "internalType": "uint256",
          "name": "balance",
          "type": "uint256"
        },
        {
          "internalType": "uint256",
          "name": "withdrawAmount",
          "type": "uint256"
        }
      ],
      "name": "InsufficientBalance",
      "type": "error"
    },
    {
      "anonymous": false,
      "inputs": [
        {
          "indexed": false,
          "internalType": "uint256",
          "name": "amount",
          "type": "uint256"
        }
      ],
      "name": "Deposit",
      "type": "event"
    },
    {
      "anonymous": false,
      "inputs": [
        {
          "indexed": false,
          "internalType": "uint256",
          "name": "amount",
          "type": "uint256"
        }
      ],
      "name": "DepositCustom",
      "type": "event"
    },
    {
      "anonymous": false,
      "inputs": [
        {
          "indexed": false,
          "internalType": "uint256",
          "name": "amount",
          "type": "uint256"
        }
      ],
      "name": "Withdraw",
      "type": "event"
    },
    {
      "anonymous": false,
      "inputs": [
        {
          "indexed": false,
          "internalType": "uint256",
          "name": "amount",
          "type": "uint256"
        }
      ],
      "name": "WithdrawCustom",
      "type": "event"
    },
    {
      "inputs": [],
      "name": "balance",
      "outputs": [
        {
          "internalType": "uint256",
          "name": "",
          "type": "uint256"
        }
      ],
      "stateMutability": "view",
      "type": "function"
    },
    {
      "inputs": [
        {
          "internalType": "uint256",
          "name": "_amount",
          "type": "uint256"
        }
      ],
      "name": "deposit",
      "outputs": [],
      "stateMutability": "payable",
      "type": "function"
    },
    {
      "inputs": [
        {
          "internalType": "uint256",
          "name": "_amount",
          "type": "uint256"
        }
      ],
      "name": "depositCustom",
      "outputs": [],
      "stateMutability": "payable",
      "type": "function"
    },
    {
      "inputs": [],
      "name": "getBalance",
      "outputs": [
        {
          "internalType": "uint256",
          "name": "",
          "type": "uint256"
        }
      ],
      "stateMutability": "view",
      "type": "function"
    },
    {
      "inputs": [],
      "name": "owner",
      "outputs": [
        {
          "internalType": "address payable",
          "name": "",
          "type": "address"
        }
      ],
      "stateMutability": "view",
      "type": "function"
    },
    {
      "inputs": [
        {
          "internalType": "uint256",
          "name": "_withdrawAmount",
          "type": "uint256"
        }
      ],
      "name": "withdraw",
      "outputs": [],
      "stateMutability": "nonpayable",
      "type": "function"
    },
    {
      "inputs": [
        {
          "internalType": "uint256",
          "name": "_withdrawAmount",
          "type": "uint256"
        }
      ],
      "name": "withdrawCustom",
      "outputs": [],
      "stateMutability": "nonpayable",
      "type": "function"
    }
  ],
  "bytecode": "0x6080604052604051610bab380380610bab833981810160405281019061002591906100ad565b336000806101000a81548173ffffffffffffffffffffffffffffffffffffffff021916908373ffffffffffffffffffffffffffffffffffffffff16021790555080600181905550506100da565b600080fd5b6000819050919050565b61008a81610077565b811461009557600080fd5b50565b6000815190506100a781610081565b92915050565b6000602082840312156100c3576100c2610072565b5b60006100d184828501610098565b91505092915050565b610ac2806100e96000396000f3fe6080604052600436106100705760003560e01c80638da5cb5b1161004e5780638da5cb5b146100e5578063b47b702814610110578063b69ef8a814610139578063b6b55f251461016457610070565b806312065fe0146100755780632e1a7d4d146100a05780634ca5835b146100c9575b600080fd5b34801561008157600080fd5b5061008a610180565b6040516100979190610701565b60405180910390f35b3480156100ac57600080fd5b506100c760048036038101906100c2919061074d565b61018a565b005b6100e360048036038101906100de919061074d565b6102db565b005b3480156100f157600080fd5b506100fa610424565b60405161010791906107bb565b60405180910390f35b34801561011c57600080fd5b506101376004803603810190610132919061074d565b610448565b005b34801561014557600080fd5b5061014e6105dc565b60405161015b9190610701565b60405180910390f35b61017e6004803603810190610179919061074d565b6105e2565b005b6000600154905090565b60008054906101000a900473ffffffffffffffffffffffffffffffffffffffff1673ffffffffffffffffffffffffffffffffffffffff163373ffffffffffffffffffffffffffffffffffffffff1614610218576040517f08c379a000000000000000000000000000000000000000000000000000000000815260040161020f90610859565b60405180910390fd5b6000600154905081600154101561026a57600154826040517fcf479181000000000000000000000000000000000000000000000000000000008152600401610261929190610879565b60405180910390fd5b816001600082825461027c91906108d1565b92505081905550818161028f91906108d1565b600154146102a05761029f610905565b5b7f5b6b431d4476a211bb7d41c20d1aab9ae2321deee0d20be3d9fc9b1093fa6e3d826040516102cf9190610701565b60405180910390a15050565b6000600154905060008054906101000a900473ffffffffffffffffffffffffffffffffffffffff1673ffffffffffffffffffffffffffffffffffffffff163373ffffffffffffffffffffffffffffffffffffffff1614610370576040517f08c379a000000000000000000000000000000000000000000000000000000000815260040161036790610859565b60405180910390fd5b600082116103b3576040517f08c379a00000000000000000000000000000000000000000000000000000000081526004016103aa906109a6565b60405180910390fd5b81600160008282546103c591906109c6565b9250508190555081816103d891906109c6565b600154146103e9576103e8610905565b5b7fa0b33265a50c51bd4139ae80cfc955d24b223276d1a01b41e22d81d5cea17ef1826040516104189190610701565b60405180910390a15050565b60008054906101000a900473ffffffffffffffffffffffffffffffffffffffff1681565b60008054906101000a900473ffffffffffffffffffffffffffffffffffffffff1673ffffffffffffffffffffffffffffffffffffffff163373ffffffffffffffffffffffffffffffffffffffff16146104d6576040517f08c379a00000000000000000000000000000000000000000000000000000000081526004016104cd90610859565b60405180910390fd5b6000600154905060008211610520576040517f08c379a000000000000000000000000000000000000000000000000000000000815260040161051790610a6c565b60405180910390fd5b81600154101561056b57600154826040517fcf479181000000000000000000000000000000000000000000000000000000008152600401610562929190610879565b60405180910390fd5b816001600082825461057d91906108d1565b92505081905550818161059091906108d1565b600154146105a1576105a0610905565b5b7f51805b14d8ba394d1fe6345f7508b01255f437a0bc2051711d4ad115679b4d91826040516105d09190610701565b60405180910390a15050565b60015481565b6000600154905060008054906101000a900473ffffffffffffffffffffffffffffffffffffffff1673ffffffffffffffffffffffffffffffffffffffff163373ffffffffffffffffffffffffffffffffffffffff1614610677576040517f08c379a000000000000000000000000000000000000000000000000000000000815260040161066e90610859565b60405180910390fd5b816001600082825461068991906109c6565b92505081905550818161069c91906109c6565b600154146106ad576106ac610905565b5b7f4d6ce1e535dbade1c23defba91e23b8f791ce5edc0cc320257a2b364e4e38426826040516106dc9190610701565b60405180910390a15050565b6000819050919050565b6106fb816106e8565b82525050565b600060208201905061071660008301846106f2565b92915050565b600080fd5b61072a816106e8565b811461073557600080fd5b50565b60008135905061074781610721565b92915050565b6000602082840312156107635761076261071c565b5b600061077184828501610738565b91505092915050565b600073ffffffffffffffffffffffffffffffffffffffff82169050919050565b60006107a58261077a565b9050919050565b6107b58161079a565b82525050565b60006020820190506107d060008301846107ac565b92915050565b600082825260208201905092915050565b7f596f7520617265206e6f7420746865206f776e6572206f66207468697320616360008201527f636f756e74000000000000000000000000000000000000000000000000000000602082015250565b60006108436025836107d6565b915061084e826107e7565b604082019050919050565b6000602082019050818103600083015261087281610836565b9050919050565b600060408201905061088e60008301856106f2565b61089b60208301846106f2565b9392505050565b7f4e487b7100000000000000000000000000000000000000000000000000000000600052601160045260246000fd5b60006108dc826106e8565b91506108e7836106e8565b92508282039050818111156108ff576108fe6108a2565b5b92915050565b7f4e487b7100000000000000000000000000000000000000000000000000000000600052600160045260246000fd5b7f4465706f73697420616d6f756e74206d7573742062652067726561746572207460008201527f68616e207a65726f000000000000000000000000000000000000000000000000602082015250565b60006109906028836107d6565b915061099b82610934565b604082019050919050565b600060208201905081810360008301526109bf81610983565b9050919050565b60006109d1826106e8565b91506109dc836106e8565b92508282019050808211156109f4576109f36108a2565b5b92915050565b7f576974686472617720616d6f756e74206d75737420626520677265617465722060008201527f7468616e207a65726f0000000000000000000000000000000000000000000000602082015250565b6000610a566029836107d6565b9150610a61826109fa565b604082019050919050565b60006020820190508181036000830152610a8581610a49565b905091905056fea26469706673582212207ab55ddf8583602366febe969fcba15f18b811919fec7f94a6fd7cd9d96f9b6b64736f6c63430008110033",
  "linkReferences": {},
  "deployedLinkReferences": {}
}